:030000000209658D
:1009650078FFE4F6D8FD9000007F007E02E4F0A356
:0A097500DFFCDEFA7581070209BA03
:0F0B21004200040000420008009B420006000949
:100A4400EF4E7003F5B422EF64014E700475B49C4C
:100A540022EF64024E700475B4B522EF64034E7045
:100A64000475B4CE22EF64044E700475B4E722EF2B
:090A740064054E700375B4FF2205
:090B5900900008A3E02FF5B4227E
:0A0B3100120B66120B6A43880222C1
:040B62005388FD2295
:0A0B3B00120B62120B6A43880422B9
:040B66005388FB2293
:0A0B4500120B62120B6643880822AF
:040B6A005388F72293
:100AEE00900004E07002A3E07003020B31120B3B86
:010AFE0022D5
:100AFF00900004E07002A3E07003020B31120B456B
:010B0F0022C3
:100B1000900004E07002A3E07003020B3B120B454F
:010B200022B2
:1009FF00E490000CF0A3F090000CE0FEA3E0FFC326
:100A0F009403EE9400502DEF4E7005120B318014AD
:100A1F0090000CE07004A3E064017005120B3B80A2
:100A2F0003120B4590000DE004F070CB90000CE02A
:050A3F0004F080C32259
:040B6E004388202276
:040B72005388DF22A3
:0A0B4F00000000000000000000227A
:100AB200E4FDFCC3ED9FEE6480F8EC64809850186E
:100AC200E4FBFA120B4F0BBB00010ABA61F5BBA89B
:080AD200F20DBD00010C80DBF8
:010ADA0022F9
:03006B0002080088
:10080000C0E0C0F0C083C082C0D075D000C000C0BE
:1008100001C002C003C004C005C006C007900004A8
:10082000E07002A3E09000047006F0A304F08004DE
:10083000E4F0A3F0900006E07002A3E07005120B54
:10084000318065900006E07004A3E0640170051239
:100850000AEE8054900006E07004A3E06402700584
:10086000120B3B8043900006E07004A3E064037029
:1008700005120B108032900006E0FEA3E0FF640436
:100880004E7005120B458020EF64054E7005120A6C
:10089000FF8015900006E07004A3E0646370091205
:1008A0000B62120B6A120B66D007D006D005D0047B
:1008B000D003D002D001D000D0D0D082D083D0F0ED
:0308C000D0E03253
:1008C30053A87F120A7D120ADB43A88075B2927582
:1008D300AA0290000AE4F0A374FFF075B292F5E760
:1008E300E4F5B4900006F0A37404F0AFE7EF240E30
:1008F300601E14602C14603924037046E4FFFE125A
:100903000A44900006E4F0A37403F0120B728032E1
:100913007F017E00120A44900006E4F0A374028073
:100923001D7F037E00120A44900006E4F0A30480B6
:100933000D7F057E00120A44E4900006F0A3F01236
:100943000B6EAFE7D3EF940074809480409DAFE7C4
:10095300EF9465748094805092AFE77E00120B5938
:02096300808989
:010B7600225C
:100ADB0075E30275E20643E30DE4F5E475E60C7588
:030AEB00E56022A1
:100A7D0075A1FFE4F5ACF591F5DEF58075B1FFF5E7
:100A8D00ADF592F5DFF58875B9FFF5AEF593F590F7
:100A9D0075C1FDF5AFF594F598F5D3F5D5F5D4F50C
:050AAD00D675D72022E0
:10097F000208C3E493A3F8E493A34003F68001F2C3
:10098F0008DFF48029E493A3F85407240CC8C33379
:10099F00C4540F4420C8834004F456800146F6DF48
:1009AF00E4800B0102040810204080900B21E47EAC
:1009BF00019360BCA3FF543F30E509541FFEE4933D
:1009CF00A360010ECF54C025E060A840B8E493A304
:1009DF00FAE493A3F8E493A3C8C582C8CAC583CA2F
:1009EF00F0A3C8C582C8CAC583CADFE9DEE780BEE7
:010B300000C4
:00000001FF
