:030000000209C929
:1009C90078FFE4F6D8FD9000007F007E02E4F0A3F2
:0A09D900DFFCDEFA758107020A1E3A
:0A0BAB0042000400004200060009A9
:100AA800EF4E700475B4FF22EF64014E700475B404
:100AB8006722EF64024E700475B44C22EF64034E53
:100AC800700475B43222EF64044E700475B41922B0
:090AD800EF64054E7002F5B42232
:0A0BB600120BE2120BE64388022244
:040BDE005388FD2219
:0A0BC000120BDE120BE6438804223C
:040BE2005388FB2217
:0A0BCA00120BDE120BE24388082232
:040BE6005388F72217
:100B7800900004E07002A3E07003020BB6120BC0F1
:010B8800224A
:100B8900900004E07002A3E07003020BB6120BCAD6
:010B99002239
:100B9A00900004E07002A3E07003020BC0120BCABB
:010BAA002228
:100A6300E490000AF0A3F090000AE0FEA3E0FFC3C5
:100A73009403EE9400502DEF4E7005120BB68014C4
:100A830090000AE07004A3E064017005120BC080BB
:100A930003120BCA90000BE004F070CB90000AE045
:050AA30004F080C322F5
:040BEA0043882022FA
:040BEE005388DF2227
:0A0BD40000000000000000000022F5
:100B1600E4FDFCC3ED9FEE6480F8EC648098501809
:100B2600E4FBFA120BD40BBB00010ABA61F5BBA8B1
:080B3600F20DBD00010C80DB93
:010B3E002294
:03006B0002091D6A
:10091D00C0E0C0F0C083C082C0D075D000C000C0A0
:10092D0001C002C003C004C005C006C0079000048A
:10093D00E07002A3E09000047006F0A304F08004C0
:10094D00E4F0A3F0900006E07002A3E07005120B36
:10095D00B6804E900006E07004A3E06401700512AD
:10096D000B78803D900006E07004A3E064027005F2
:10097D00120BC0802C900006E07004A3E06403709D
:10098D0005120B9A801B900006E0FEA3E0FF6404A5
:10099D004E7005120BCA8009EF64054E7003120BE1
:1009AD0089D007D006D005D004D003D002D001D015
:0C09BD0000D0D0D082D083D0F0D0E03247
:1008000053A87F120AE1120B6543A88075B2927556
:10081000AA02900008E4F0A374FFF075B292F5E725
:10082000AFE7EF120B3F08A50108AF0208BB0308B2
:10083000C70408D30508DE0608EA1108EF1208F518
:100840001308FB1409011509071608601F09112177
:1008500009172208742F08853F08954F00000820CB
:10086000E4FFFE120AA8900006E4F0A37403F0125D
:100870000BEE80AC7F017E00120AA8900006E4F027
:10088000A37402801D7F037E00120AA8900006E474
:10089000F0A304800D7F057E00120AA8E4900006F4
:1008A000F0A3F0806CE4900006F0A3F00208209022
:1008B0000006E4F0A37402F0020820900006E4F0C1
:1008C000A37404F0020820900006E4F0A37403F07F
:1008D000020820900006E4F0A304F0020820900033
:1008E00006E4F0A37405F0020820E4FFFE801C7FFC
:1008F000017E0080167F027E0080107F037E0080D4
:100900000A7F047E0080047F057E00120AA8020888
:0D09100020120BEA020820120BEE02082054
:010BF20022E0
:100B650075E30275E20643E30DE4F5E475E61075F9
:030B7500E5602216
:100AE10075A1FFE4F5ACF591F5DEF58075B1FFF583
:100AF100ADF592F5DFF58875B9FFF5AEF593F59093
:100B010075C1FDF5AFF594F598F5D3F5D5F5D4F5A7
:050B1100D675D720227B
:1009E300020800E493A3F8E493A34003F68001F222
:1009F30008DFF48029E493A3F85407240CC8C33315
:100A0300C4540F4420C8834004F456800146F6DFE3
:100A1300E4800B0102040810204080900BABE47EBD
:100A2300019360BCA3FF543F30E509541FFEE493D8
:100A3300A360010ECF54C025E060A840B8E493A39F
:100A4300FAE493A3F8E493A3C8C582C8CAC583CACA
:100A5300F0A3C8C582C8CAC583CADFE9DEE780BE82
:010BB500003F
:100B3F00D083D082F8E4937012740193700DA3A345
:100B4F0093F8740193F5828883E473740293686059
:060B5F00EFA3A3A380DF59
:00000001FF
