:03000000020908EA
:1009080078FFE4F6D8FD9000007F007E02E4F0A3B3
:0A091800DFFCDEFA758107020922F8
:1008E200EF4E700475B4FF22EF64014E700475B4CC
:1008F2008022EF64024E700475B44022EF64034E0E
:06090200700375B4012230
:0A093A0012096C12096843880222BA
:040964005388FD2295
:0A09440012096C12096443880422B2
:040968005388FB2293
:0A094E0012096412096843880822A8
:04096C005388F72293
:10087A00E4900004F0A3F0900004E0FEA3E0FFC3BC
:10088A009402EE9400501CEF4E700512093A800350
:10089A00120944900005E004F070DC900004E004C2
:0408AA00F080D422E4
:1008AE00E4900004F0A3F0900004E0FEA3E0FFC388
:1008BE009402EE9400501CEF4E700512094E800308
:1008CE00120944900005E004F070DC900004E0048E
:0408DE00F080D422B0
:10080000E4900004F0A3F0900004E0FEA3E0FFC336
:100810009403EE9400502DEF4E700512093A8014A7
:10082000900004E07004A3E06401700512094480A4
:100830000312094E900005E004F070CB900004E034
:0508400004F080C3225A
:0609580043882002093A69
:06095E005388DF02094E80
:1009220053A87F12084512097043A88075B2907FC0
:08093200027E001208E280FEC3
:010970002264
:1008450075A1FFE4F5ACF591F5DEF58075B1FFF521
:10085500ADF592F5DFF58875B9FFF5AEF593F59031
:1008650075C1FFF5AFF594F598F5D3F5D5F5D4F544
:05087500D675D720221A
:00000001FF
