:0300000002097181
:1009710078FFE4F6D8FD9000007F007E02E4F0A34A
:0A098100DFFCDEFA7581070209C6EB
:0F0B59004200040000420008009B420006000911
:100A5000EF4E7003F5B422EF64014E700475B49C40
:100A600022EF64024E700475B4B522EF64034E7039
:100A70000475B4CE22EF64044E700475B4E722EF1F
:090A800064054E700375B4FF22F9
:090B9100900008A3E02FF5B42246
:0A0B6900120B9E120BA24388022219
:040B9A005388FD225D
:0A0B7300120B9A120BA24388042211
:040B9E005388FB225B
:0A0B7D00120B9A120B9E4388082207
:040BA2005388F7225B
:100B2600900004E07002A3E07003020B69120B73DD
:010B3600229C
:100B3700900004E07002A3E07003020B69120B7DC2
:010B4700228B
:100B4800900004E07002A3E07003020B73120B7DA7
:010B5800227A
:100A0B00E490000CF0A3F090000CE0FEA3E0FFC319
:100A1B009403EE9400502DEF4E7005120B69801469
:100A2B0090000CE07004A3E064017005120B73805E
:100A3B0003120B7D90000DE004F070CB90000CE0E6
:050A4B0004F080C3224D
:040BA600438820223E
:040BAA005388DF226B
:0A0B87000000000000000000002242
:100AEA00E4FDFCC3ED9FEE6480F8EC648098501836
:100AFA00E4FBFA120B870BBB00010ABA61F5BBA82B
:080B0A00F20DBD00010C80DBBF
:010B120022C0
:03006B0002080088
:10080000C0E0C0F0C083C082C0D075D000C000C0BE
:1008100001C002C003C004C005C006C007900004A8
:10082000E07002A3E09000047006F0A304F08004DE
:10083000E4F0A3F0900006E07002A3E07005120B54
:10084000698065900006E07004A3E0640170051201
:100850000B268054900006E07004A3E0640270054B
:10086000120B738043900006E07004A3E0640370F1
:1008700005120B488032900006E0FEA3E0FF6404FE
:100880004E7005120B7D8020EF64054E7005120B33
:10089000378015900006E07004A3E06463700912CD
:1008A0000B9A120BA2120B9ED007D006D005D004D3
:1008B000D003D002D001D000D0D0D082D083D0F0ED
:0308C000D0E03253
:03004B00020ABEE8
:100ABE00C0E0C083C082C0D075D000C007AFE79041
:100ACE00000AE4F0A3EFF043D70190000AA3E0F58B
:0C0ADE00E7D007D0D0D082D083D0E03227
:1008C30053A87F120A89120B1343A88075B292753D
:1008D300AA0275A90890000AE4F0A374FFF075B2A8
:1008E30092F5E7E4F5B4900006F0A37404F09000E9
:1008F3000AE0FEA3E0FFEE7055EF240E601E1460C5
:100903002C14603924037046E4FFFE120A50900051
:1009130006E4F0A37403F0120BAA80327F017E0079
:10092300120A50900006E4F0A37402801D7F037E38
:1009330000120A50900006E4F0A304800D7F057EA8
:1009430000120A50E4900006F0A3F0120BA6AFE7E2
:10095300D3EF9400748094804094AFE7EF94657470
:0E0963008094805089AFE77E00120B91808057
:010BAE002224
:100B130075E30275E20643E32FE4F5E475E60C752D
:030B2300E5602268
:100A890075A1FFE4F5ACF591F5DEF58075B1FFF5DB
:100A9900ADF592F5DFF58875B9FFF5AEF593F590EB
:100AA90075C1FDF5AFF594F598F5D3F5D5F5D4F500
:050AB900D675D72022D4
:10098B000208C3E493A3F8E493A34003F68001F2B7
:10099B0008DFF48029E493A3F85407240CC8C3336D
:1009AB00C4540F4420C8834004F456800146F6DF3C
:1009BB00E4800B0102040810204080900B59E47E68
:1009CB00019360BCA3FF543F30E509541FFEE49331
:1009DB00A360010ECF54C025E060A840B8E493A3F8
:1009EB00FAE493A3F8E493A3C8C582C8CAC583CA23
:1009FB00F0A3C8C582C8CAC583CADFE9DEE780BEDB
:010B6800008C
:00000001FF
