:03000000020B747C
:100B740078FFE4F6D8FD9000007F007E02E4F0A345
:0A0B8400DFFCDEFA758107020BC9E1
:100D93004200040000420016000042000A009B4289
:100DA3000008000942000E0000420010000042004B
:030DB30006000037
:0A0C0E00900014E0FEA3E0FF7C005C
:100C180090001AECF0A3EDF0EF4E7003F5B422EF5C
:100C280064014E7009900016F0A3748C801CEF6468
:100C3800024E7009900016F0A374B0800DEF6403A3
:100C48004E7019900016F0A374E3F090001AA3E018
:100C580025E0FF900016A3E02FF5B422EF64044EC0
:100C68007009900016F0A374FFF022EF64054E702F
:050C78000375B4FF222A
:090E320090000AA3E02FF5B422A0
:0A0E0A00120E3F120E43438802222D
:040E3B005388FD22B9
:0A0E1400120E3B120E434388042225
:040E3F005388FB22B7
:0A0E1E00120E3B120E3F438808221B
:040E43005388F722B7
:100DCA00900004E07002A3E07003020E0A120E14EF
:010DDA0022F6
:100DDB00900004E07002A3E07003020E0A120E1ED4
:010DEB0022E5
:100DEC00900004E07002A3E07003020E14120E1EB9
:010DFC0022D4
:100CCA00E4900012F0A3F0900012E0FEA3E0FFC34C
:100CDA009403EE9400502DEF4E7005120E0A801404
:100CEA00900012E07004A3E064017005120E1480F3
:100CFA0003120E1E900013E004F070CB900012E075
:050D0A0004F080C3228B
:040E4700438820229A
:090DFD00900008E4F0A37463F017
:040E06005388DF220C
:0A0E2800000000000000000000229E
:100D4400E4FDFCC3ED9FEE6480F8EC6480985018D9
:100D5400E4FBFA120E280BBB00010ABA61F5BBA82A
:080D6400F20DBD00010C80DB63
:010D6C002264
:03006B00020AB1D5
:100AB100C0E0C0F0C083C082C0D075D000C000C00B
:100AC10001C002C003C004C005C006C007900004F5
:100AD100E07002A3E09000047006F0A304F080042B
:100AE100E4F0A3F0900008E07002A3E07005120E9C
:100AF1000A8065900008E07004A3E06401700512AB
:100B01000DCA8054900008E07004A3E064027005EF
:100B1100120E148043900008E07004A3E064037097
:100B210005120DEC8032900008E0FEA3E0FF6404A2
:100B31004E7005120E1E8020EF64054E7005120DD9
:100B4100DB8015900008E07004A3E0646370091273
:100B51000E3B120E43120E3FD007D006D005D00433
:100B6100D003D002D001D000D0D0D082D083D0F039
:030B7100D0E0329F
:03004B00020C7D27
:100C7D00C0E0C083C082C0D075D000C006C007AF31
:100C8D00E790000EE4F0A3EFF090000EE0FEA3E07D
:100C9D00FF64C04E7008900006F0A3F0800DEF6465
:100CAD00D04E7007900006F0A304F043D7018FE7F4
:0D0CBD00D007D006D0D0D082D083D0E03256
:1008000053A87F120D0F120DB743A88075B29275D1
:10081000AA0275A90890000EE4F0A374FFF075B267
:1008200092F5E7E4F5B4900008F0A37404F0E490C6
:100830000014F0A3F090000C020A66900006E0702D
:1008400002A3E06003020A6C90000EE0FEA3E0FF4A
:10085000EE70E8EF120D6D0A4AA0092FB1094BB2F4
:10086000095FB30974B40993B509B2B609D1B709E0
:10087000F0B80A0EB90A2CBA0888F108B2F208DDFD
:10088000F30907F40000083B900014E4F0A304F01F
:1008900090000CE0FCA3E0FD7F017E00120C18909C
:1008A0000008E4F0A37403F0120E47E490000E0277
:1008B0000A66900014E4F0A37402F090000CE0FCCF
:1008C000A3E0FD7F027E00120C18900008E4F0A364
:1008D0007402F0120E47E490000E020A66900014B3
:1008E000E4F0A37403F090000CE0FCA3E0FD7F03B0
:1008F0007E00120C18900008E4F0A304F0120E47DA
:10090000E490000E020A66900014E4F0A37404F070
:1009100090000CE0FCA3E0FD7F047E00120C18E4C4
:10092000900008F0A3F0120E4790000E020A66E451
:1009300090000CF0A3F0900014E0FEA3E0FFE4FDB3
:10094000FC120C18E490000E020A6690000CE4F011
:10095000A304F07D01120C0EE490000E020A6690D2
:10096000000CE4F0A37402F07D02120C0EE490007F
:100970000E020A6690000CE4F0A37403F0900014D9
:10098000E0FEA3E0FF7D037C00120C18E490000E53
:10099000020A6690000CE4F0A37404F0900014E0E6
:1009A000FEA3E0FF7D047C00120C18E490000E0210
:1009B0000A6690000CE4F0A37405F0900014E0FEC9
:1009C000A3E0FF7D057C00120C18E490000E020AE3
:1009D0006690000CE4F0A37406F0900014E0FEA30F
:1009E000E0FF7D067C00120C18E490000E020A66FF
:1009F00090000CE4F0A37407F0900014E0FEA3E074
:100A0000FF7D077C00120C18E490000E80589000C7
:100A10000CE4F0A37408F0900014E0FEA3E0FF7D66
:100A2000087C00120C18E490000E803A90000CE450
:100A3000F0A37409F0900014E0FEA3E0FF7D097CB0
:100A400000120C18E490000E801CE4900014F0A337
:100A5000F090000CE0FCA3E0FDE4FFFE120C181285
:100A60000DFDE490000EF0A3F002083B90000EE0B4
:100A7000FEA3E0FFD39400EE648094804010EF94D6
:100A800065EE648094805006120E3202083B90009E
:100A90000EE07004A3E064A0600302083B90000C29
:100AA000E0FCA3E0FDE4FFFE120C18120DFD0208AD
:010AB0003B0A
:010E4B002284
:100DB70075E30275E20643E32FE4F5E475E61D7576
:030DC700E56022C2
:100D0F0075A1FFE4F5ACF591F5DEF58075B1FFF552
:100D1F00ADF592F5DFF58875B9FFF5AEF593F59062
:100D2F0075C1FDF5AFF594F598F5D3F5D5F5D4F577
:050D3F00D675D720224B
:100B8E00020800E493A3F8E493A34003F68001F275
:100B9E0008DFF48029E493A3F85407240CC8C33368
:100BAE00C4540F4420C8834004F456800146F6DF37
:100BBE00E4800B0102040810204080900D93E47E27
:100BCE00019360BCA3FF543F30E509541FFEE4932C
:100BDE00A360010ECF54C025E060A840B8E493A3F3
:100BEE00FAE493A3F8E493A3C8C582C8CAC583CA1E
:100BFE00F0A3C8C582C8CAC583CADFE9DEE780BED6
:010DB600003C
:100D6D00D083D082F8E4937012740193700DA3A315
:100D7D0093F8740193F5828883E473740293686029
:060D8D00EFA3A3A380DF29
:00000001FF
