:030000000208C330
:1008C30078FFE4F6D8FD9000007F007E02E4F0A3F9
:0A08D300DFFCDEFA75810702091848
:100B05004200040000420008009B42000600094222
:100B1500000A0000420014000042000C00004200E0
:030B25000E0000BF
:100A6E00EF4E7003F5B422EF64014E700475B48C32
:100A7E0022EF64024E700475B4A622EF64034E702A
:100A8E000475B4CE22EF64044E700475B4E722EF01
:090A9E0064054E700375B4FF22DB
:090B9700900008A3E02FF5B42240
:0A0B6F00120BA4120BA84388022207
:040BA0005388FD2257
:0A0B7900120BA0120BA843880422FF
:040BA4005388FB2255
:0A0B8300120BA0120BA443880822F5
:040BA8005388F72255
:100B3C00900004E07002A3E07003020B6F120B79BB
:010B4C002286
:100B4D00900004E07002A3E07003020B6F120B83A0
:010B5D002275
:100B5E00900004E07002A3E07003020B79120B8385
:010B6E002264
:1009EE00E4900010F0A3F0900010E0FEA3E0FFC32F
:1009FE009403EE9400502DEF4E7005120B6F801481
:100A0E00900010E07004A3E064017005120B798071
:100A1E0003120B83900011E004F070CB900010E0F5
:050A2E0004F080C3226A
:040BAC004388202238
:040BB0005388DF2265
:0A0B8D00000000000000000000223C
:100ADC00E4FDFCC3ED9FEE6480F8EC648098501844
:100AEC00E4FBFA120B8D0BBB00010ABA61F5BBA833
:080AFC00F20DBD00010C80DBCE
:010B040022CE
:03006B0002080088
:10080000C0E0C0F0C083C082C0D075D000C000C0BE
:1008100001C002C003C004C005C006C007900004A8
:10082000E07002A3E09000047006F0A304F08004DE
:10083000E4F0A3F0900006E07002A3E07005120B54
:100840006F8065900006E07004A3E06401700512FB
:100850000B3C8054900006E07004A3E06402700535
:10086000120B798043900006E07004A3E0640370EB
:1008700005120B5E8032900006E0FEA3E0FF6404E8
:100880004E7005120B838020EF64054E7005120B2D
:100890004D8015900006E07004A3E06463700912B7
:1008A0000BA0120BA8120BA4D007D006D005D004C1
:1008B000D003D002D001D000D0D0D082D083D0F0ED
:0308C000D0E03253
:03004B00020A3373
:100A3300C0E0C083C082C0D075D000C00790000A58
:100A4300E0FFA3E0900014CFF0A3EFF0AFE7900036
:100A53000AE4F0A3EFF043D70190000AA3E0F5E71F
:0B0A6300D007D0D0D082D083D0E0328A
:10095D0053A87F120AA7120B2943A88075B292756E
:10096D00AA0275A90890000AE4F0A374FFF075B20D
:10097D0092F5E7E4F5B4900006F0A37404F090004E
:10098D000AE0FEA3E0FFEE70F5EF240E601B14608D
:10099D002914603A240370E67F017E00120A6E90DE
:1009AD000006E4F0A37403801F7F027E00120A6E1E
:1009BD00900006E4F0A37402800E7F037E00120AFD
:1009CD006E900006E4F0A304F0120BAC80B07F042F
:1009DD007E00120A6EE4900006F0A3F0120BAC80BC
:0109ED009D6C
:010BB400221E
:100B290075E30275E20643E32FE4F5E475E61D7506
:030B3900E5602252
:100AA70075A1FFE4F5ACF591F5DEF58075B1FFF5BD
:100AB700ADF592F5DFF58875B9FFF5AEF593F590CD
:100AC70075C1FDF5AFF594F598F5D3F5D5F5D4F5E2
:050AD700D675D72022B6
:1008DD0002095DE493A3F8E493A34003F68001F2CB
:1008ED0008DFF48029E493A3F85407240CC8C3331C
:1008FD00C4540F4420C8834004F456800146F6DFEB
:10090D00E4800B0102040810204080900B05E47E6A
:10091D00019360BCA3FF543F30E509541FFEE493DF
:10092D00A360010ECF54C025E060A840B8E493A3A6
:10093D00FAE493A3F8E493A3C8C582C8CAC583CAD1
:10094D00F0A3C8C582C8CAC583CADFE9DEE780BE89
:010B280000CC
:00000001FF
